:020000040000fa
:080000000001040000000000f3
:020000040000fa
:0400080028030000c9
:020000040000fa
:04000c0028030000c5
:020000040000fa
:0400100028030000c1
:020000040000fa
:0400140028030000bd
:020000040000fa
:0400180028030000b9
:020000040000fa
:04001c0028030000b5
:020000040000fa
:0400200028030000b1
:020000040000fa
:0400240028030000ad
:020000040000fa
:0400280028030000a9
:020000040000fa
:04002c0028030000a5
:020000040000fa
:0400300028030000a1
:020000040000fa
:04003400280300009d
:020000040000fa
:040038002803000099
:020000040000fa
:04003c002803000095
:020000040000fa
:040040002803000091
:020000040000fa
:04004400280300008d
:020000040000fa
:040048002803000089
:020000040000fa
:04004c002803000085
:020000040000fa
:040050002803000081
:020000040000fa
:040054007c0200002a
:020000040000fa
:040058005002000052
:020000040000fa
:04005c002803000075
:020000040000fa
:040060002803000071
:020000040000fa
:04006400280300006d
:020000040000fa
:040068002803000069
:020000040000fa
:04006c002803000065
:020000040000fa
:040070002803000061
:020000040000fa
:04007400280300005d
:020000040000fa
:040078002803000059
:020000040000fa
:04007c002803000055
:020000040000fa
:040080002803000051
:020000040000fa
:04008400280300004d
:020000040000fa
:040088002803000049
:020000040000fa
:04008c002803000045
:020000040000fa
:040090002803000041
:020000040000fa
:04009400280300003d
:020000040000fa
:040098002803000039
:020000040000fa
:04009c002803000035
:020000040000fa
:0400a000c402000096
:020000040000fa
:0400a40098020000be
:020000040000fa
:0400a8002803000029
:020000040000fa
:0400ac002803000025
:020000040000fa
:0400b0002803000021
:020000040000fa
:0400b400280300001d
:020000040000fa
:0400b8002803000019
:020000040000fa
:0400bc002803000015
:020000040000fa
:0400c0002803000011
:020000040000fa
:0400c400280300000d
:020000040000fa
:0400c8002803000009
:020000040000fa
:0400cc002803000005
:020000040000fa
:0400d0002803000001
:020000040000fa
:0400d40028030000fd
:020000040000fa
:0400d80028030000f9
:020000040000fa
:0400dc0028030000f5
:020000040000fa
:0400e00028030000f1
:020000040000fa
:0400e40028030000ed
:020000040000fa
:0400e80028030000e9
:020000040000fa
:0400ec0028030000e5
:020000040000fa
:0400f00028030000e1
:020000040000fa
:0400f40028030000dd
:020000040000fa
:0400f80028030000d9
:020000040000fa
:0400fc0028030000d5
:020000040000fa
:0401000028030000d0
:020000040000fa
:0401040028030000cc
:020000040000fa
:0401080028030000c8
:020000040000fa
:04010c0028030000c4
:020000040000fa
:0401100028030000c0
:020000040000fa
:0401140028030000bc
:020000040000fa
:0401180028030000b8
:020000040000fa
:04011c0028030000b4
:020000040000fa
:0401200028030000b0
:020000040000fa
:0401240028030000ac
:020000040000fa
:0401280028030000a8
:020000040000fa
:04012c0028030000a4
:020000040000fa
:0401300028030000a0
:020000040000fa
:04013400280300009c
:020000040000fa
:040138002803000098
:020000040000fa
:04013c002803000094
:020000040000fa
:040140002803000090
:020000040000fa
:04014400280300008c
:020000040000fa
:040148002803000088
:020000040000fa
:04014c002803000084
:020000040000fa
:040150002803000080
:020000040000fa
:04015400280300007c
:020000040000fa
:040158002803000078
:020000040000fa
:04015c002803000074
:020000040000fa
:040160002803000070
:020000040000fa
:04016400280300006c
:020000040000fa
:040168002803000068
:020000040000fa
:04016c002803000064
:020000040000fa
:040170000c0300007c
:020000040000fa
:04017400e0020000a5
:020000040000fa
:040178002803000058
:020000040000fa
:04017c002803000054
:020000040000fa
:040180002803000050
:020000040000fa
:04018400280300004c
:020000040000fa
:040188002803000048
:020000040000fa
:04018c002803000044
:020000040000fa
:040190002803000040
:020000040000fa
:04019400280300003c
:020000040000fa
:040198002803000038
:020000040000fa
:04019c002803000034
:020000040000fa
:0401a0002803000030
:020000040000fa
:0401a400280300002c
:020000040000fa
:0401a8002803000028
:020000040000fa
:0401ac002803000024
:020000040000fa
:0401b0002803000020
:020000040000fa
:0401b400280300001c
:020000040000fa
:0401b8002803000018
:020000040000fa
:0401bc002803000014
:020000040000fa
:0401c0002803000010
:020000040000fa
:0401c400280300000c
:020000040000fa
:0401c8002803000008
:020000040000fa
:0401cc002803000004
:020000040000fa
:0401d0002803000000
:020000040000fa
:0401d40028030000fc
:020000040000fa
:0401d80028030000f8
:020000040000fa
:0401dc0028030000f4
:020000040000fa
:0401e00028030000f0
:020000040000fa
:0401e40028030000ec
:020000040000fa
:0401e80028030000e8
:020000040000fa
:0401ec0028030000e4
:020000040000fa
:0401f00028030000e0
:020000040000fa
:0401f40028030000dc
:020000040000fa
:0401f80028030000d8
:020000040000fa
:0401fc0028030000d4
:020000040000fa
:100200000faa20000eff27000e018800000000004a
:10021000000020000000e000020032000001200089
:100220002002880014000700800107000000e000a1
:1002300003003a00c0cf2100010020000200370077
:100240000000200001002000810f7000010032003a
:1002500014000700000020000000e000020032004f
:100260000000020000000000e22002000000000088
:100270000040da000000fe004440a9006023200096
:100280000000e00003003200002020009001880000
:100290004440a800000006008a1f78008b1f7800e9
:1002a00000000600a1028800800478000000eb0036
:1002b0001f003700e284440054a0b4009905ba003e
:1002c000e284440054a0b4009906ba00e2844400d9
:1002d00054a0b4000006eb00476fde00fd07b2003b
:1002e000ae018800636ce10003003a00eaff0700fa
:1002f0000000eb000e003700606ce10008003a00df
:10030000004deb000a05e800020039003420ec0043
:100310000af0a0008b05e900f9ff3e000400370059
:100320006168e100010032000086eb000b0007006d
:1003300019c7ba001905ba000e04e00003003a001c
:100340000a00e000dbff3a0000000600fe07b200f2
:10035000ae0288008a047800f5ff37000cd0a300b5
:10036000e20f4d001c00390089027800354dba00bb
:100370000a05e800020039003420ec000af0a00071
:100380008b05e9000f003200254dba000a05e80090
:10039000020039003420ec000af0a0008b05e900cf
:1003a000080032000c00e0000600320015cdba0053
:1003b0000a05e800020039003420ec000af0a00031
:1003c0008b05e9008984e80054a0b4000b00e0002c
:1003d000e2ff3a00000006009902ba00055d7800cd
:1003e0008b05e900f7ff3200c82ade00055d7800c2
:1003f0008b05e900f3ff32000c00e000f1ff320052
:1004000019ddba00eeff3700881804000000000074
:10041000b6180400000000003419040000000000b9
:10042000ec18040000000000e418040000000000c4
:100430006e19040000000000701f0400000000009e
:10044000761f0400000000005e160400000000009b
:100450000c16040000000000d41604000000000088
:10046000f815040000000000bc16040000000000a5
:100470000a1604000000000044040400000000000c
:100480005e040400000000008c0404000000000072
:10049000900f0400000000000000040000000000b5
:1004a0003600f800809fbe00829fbe00849fbe0081
:1004b000869fbe00881f780078548000084890000e
:1004c0000080fb008000eb00f61f0200000000002f
:1004d0009800780008007800010001004f047800bf
:1004e0004f03be004f02be004f01be004f00be00d2
:1004f0003600f900004006003600f800809fbe007c
:10050000829fbe00849fbe00869fbe007054800004
:10051000981a0200000000004f03be004f02be0008
:100520004f01be004f00be003600f900004006003b
:100530003600f800809fbe00829fbe00849fbe00f0
:10054000869fbe00881f780068548000084890008d
:100550000080fb008000eb00f61f0200000000009e
:100560009800780008007800010001004f0478002e
:100570004f03be004f02be004f01be004f00be0041
:100580003600f900004006003600f800809fbe00eb
:10059000829fbe00849fbe00869fbe006054800084
:1005a000981a0200000000004f03be004f02be0078
:1005b0004f01be004f00be003600f90000400600ab
:1005c0003600f800809fbe00829fbe00849fbe0060
:1005d000869fbe00881f780058548000084890000d
:1005e0000080fb008000eb00f61f0200000000000e
:1005f0009800780008007800010001004f0478009e
:100600004f03be004f02be004f01be004f00be00b0
:100610003600f900004006003600f800809fbe005a
:10062000829fbe00849fbe00869fbe005054800003
:10063000981a0200000000004f03be004f02be00e7
:100640004f01be004f00be003600f900004006001a
:100650000040da000000fe000a00fa00110020004d
:10066000b1bf9f00c0bf9f006a805700e10607002e
:100670004fb897000080fa00000006000a00fa0058
:10068000e20f500034003e00e0548000e10f5000c3
:1006900003003200e20f500011003a000c00370056
:1006a000833920000300e00001003a000040da0036
:1006b0009803e20002003500a023ef0099e3a800b0
:1006c0009b43ab000d003a009b43a8000b00370092
:1006d000e33a20000300e00001003a000040da00a5
:1006e000ae03e20002003500b623ef00afe3a8003e
:1006f000b143ab0001003a00b143a8008201780089
:100700000b0037003102fb00e10f500004003a00fb
:100710009b23ab00feff3a00e41c88000300370077
:10072000b123ab00feff3a00941d88008301e9006d
:100730000300e000f3ff3a00e10f500003003a002d
:100740009b03ab00feff32000b003700b103ab0090
:10075000feff32000800370033002000b3bf9f00c7
:10076000c0bf9f00d1bf9f00e2bf9f006a805700bb
:10077000a20607006fb99700020078000080fa0017
:10078000000006000a00fa0051002000b1bf9f00df
:10079000c0bf9f006a8057009a0607005fb89700a5
:1007a0000080fa0000000600889fbe0080047800e8
:1007b000f05480000000e00004003a000e00070042
:1007c0000084eb000000e00008003500f8548000d1
:1007d0000900e0000500320009004400060007009f
:1007e0000000e00001003d000084eb0008007800fc
:1007f0004f04be0000000600800078000100e00009
:1008000003003a0000002000f054880000000500ba
:100810000080eb0002002000828f500002003e00aa
:10082000f15488000000eb00000006000000050005
:100830006022b800060220000000d0008180d200b3
:100840000482d2008582d2000000a0000202520081
:1008500083825a00030031000202420083824a0070
:100860000000a1000603e900f3ff3a0000000600c3
:1008700080007800010178003104e000fdff3a00bb
:100880000000510000000600889fbe008004780030
:100890000203be00010478006149b800898fd200cc
:1008a0008381d200080278000600be0057060700c8
:1008b000088044004f04be0000000600881f780036
:1008c00002047800080178003602070008004000a2
:1008d0004f047800000006000000fa00881f78002e
:1008e000000478006a825700bfb9970008017800b9
:1008f00041442000e0452000160007000000e00011
:10090000020035008040eb00017478004f0478004d
:100910000080fa0000000600889fbe0000047800f6
:100920000203be0081047800080278008901780083
:10093000120020000600be0038040700890f500096
:10094000010032000004eb00080078004f04be00f4
:10095000000006006800fa00889fbe008a9fbe0063
:10096000800478000104780082057800030578008f
:100970008400780000f92f000f00400025040700d4
:10098000d98f9f00fb8f9f000000eb00a09f9f006e
:10099000e88f9f009a84fb000904fb008904ea00a9
:1009a000cf4cde0050022000800f54000d003200ba
:1009b000e18f54000b003a00090178008a007800aa
:1009c0007f889700df89970003000100f08f9f0068
:1009d0000000e000950032002f9897000000e8002a
:1009e000a09f9f000905450050022000800f540081
:1009f000040032000800e000e6ff3a002f9897005c
:100a00008b0037000000eb00809f9f00f0979f0055
:100a1000e0979f00d0979f00c0979f00b0979f00de
:100a20000700370041a820000100500000004000ee
:100a300081a7200061007800cf9897000100700026
:100a4000c09f9f000a04780008057800ba44780027
:100a50008900fb0040a82000d90107000000e00049
:100a6000f0ff3a00a1c2b30081cf54000e003a005b
:100a70008f8897000180e900808f9f001000780028
:100a8000b09f9f000000e00005003d000000ea006c
:100a9000b09f9f004f9897000020a000c09f9f002c
:100aa0000804e80010003700b09f9f00880078001d
:100ab0000000eb0005003700f3ff2700830f500014
:100ac000020032006a02b90004004100010478000b
:100ad000880078003101fb000203b100e90f5100ea
:100ae000f5ff3600b09f9f00e0c2b300984f1000a2
:100af000020032000080eb0019003700a0c2b300f2
:100b0000d84f100007003a008f8897000180e90055
:100b1000808f9f0010007800909f9f000804e800dd
:100b2000100037000000eb00909f9f0088007800c5
:100b300005003700f3ff2700830f5000020032004a
:100b40006a02b900040041000104780088007800be
:100b50003101fb000203b100e90f5100f5ff36003f
:100b6000909f9f00984478008900fb0000a7200018
:100b7000930107000000e000020032000804e800d2
:100b8000010037008044eb00a97f9f0080c6b300be
:100b900080cf540006003a0098cf140010003a00ad
:100ba00066405000a07f9f000804e8000c0037005a
:100bb000c0c6b30080cf540009003a0098cf14009b
:100bc00007003a0067404000d84f100002003a008a
:100bd0006e4050000100370010c7b300a07f9f0097
:100be0001801fb00c3fb2f008f81410001f92f008a
:100bf0008f80400020f92f000f00400015000700f3
:100c00000000e00009003a00c1fb2f008f80400087
:100c100020f92f000f004000a40207000000e000b0
:100c2000020035000805e8005aff37000080eb009d
:100c30004f05be004f04be000080fa000000060011
:100c4000030278008201780001017800c148200089
:100c500040ff3700889fbe008a1f7800000478009c
:100c60000100780082407800e2c6b30082cf5000d5
:100c7000c000320015003c006b41510082cf500093
:100c8000240032000a003c007041510082cf500025
:100c9000f90032006541410082cf50006800320007
:100ca00050c2b30080cf500028013a002401370021
:100cb00042c6b30082cf50001b00320065414100a4
:100cc00082cf500021013a001700370032c7b3002d
:100cd00082cf5000e800320007003c006441510020
:100ce00082cf5000560032000241e80082cf50000f
:100cf00016013a00d200370052c7b30082cf50002d
:100d00004f0032006341410082cf50000f013a0092
:100d10004b0037009080e900010878002808900017
:100d2000914078000701370008699000c4c6b300fd
:100d3000844f510007003a0010027800640152000d
:100d4000020878001202be004fabde008603780076
:100d50001100370014c7b300844f51000300320064
:100d6000a4c6b300844f510006003a001002780078
:100d700068015200020878003202be002203be0061
:100d8000050037001081e90002087800120278009f
:100d9000cfa2de00612bb900049cbe000694be0009
:100da0000868900082c6b300824f50000d003200e8
:100db00022c6b300824f500004003a000402fb0038
:100dc000cfa2de00612bb9000800370042c7b30094
:100dd000824f50000300320066414100824f5000b4
:100de00004003a00cfa2de00612bb900049cbe00d3
:100df0000694be003802be002803be0028089000fa
:100e0000d2c2b300e00f5200e08f5a00e00f5b0047
:100e1000e08f5b0008003500381190000218a30035
:100e200002003200b2c2b300030037000208a30080
:100e30004c00320002c2b3008271780047003700d4
:100e400008699000c4c6b300844f510006003a0000
:100e50001002780064015200020878001202be00fd
:100e60006033b8001100370014c7b300844f51003d
:100e700003003200a4c6b300844f510006003a00bc
:100e80001002780068015200020878003202be00a9
:100e90002203be00050037001081e9000208780037
:100ea000120278008002eb006033b800049cbe00a0
:100eb0000694be000868900082c6b300824f5000be
:100ec0000d00320022c6b300824f500004003a00e9
:100ed0000482fb008002eb006033b800080037009a
:100ee00042c7b300824f5000030032006641410008
:100ef000824f500004003a008002eb006033b800db
:100f0000049cbe000694be00381090000038a30078
:100f1000140032003802be002803be00e00f520069
:100f2000e08f5a00e00f5b00e08f5b000d003200a5
:100f300080c7b30080cf50000300320080c5b300eb
:100f400080cf500007003a002808900002c3b30089
:100f5000827178000000e800817178000000e800ec
:100f6000200c9800280890008081410073049800ac
:100f70003e00370008699000c3c6b3009080e900c6
:100f8000834f5100220032000a003c00e4c15100ae
:100f9000834f51002500320083c1e800834f510088
:100fa00013003200e8c15100834f51001e003a0087
:100fb0000a00370043c7b300834f51001b003200c3
:100fc000e6c14100834f510018003200e9c15100d1
:100fd000834f510014003a000500370001087800e3
:100fe0001100780028649000084878005f003700fe
:100ff000010878001100780018129000cfa2de00de
:10100000612bb9000498be000690be00570037005f
:10101000010878001100780018119000cf91de00cf
:101020000288be00510037009080e9000108780076
:101030001100780018149000080878004b00370061
:101040009080e9000108780011027800cfa2de004c
:10105000612bb900049cbe000694be0028089000d5
:10106000808141007304980081c7b30008007800b4
:101070005f0007003d0037000869900051c6b300cb
:10108000814f51001a003a0010017800e40051002d
:10109000010878001100be00000c9800110c9800a7
:1010a000881190000300e00007003d008081eb0004
:1010b0000001eb007e0407000001be0088089000dc
:1010c00081005100080037000001eb0078040700a0
:1010d0000081700003003200080990008200500077
:1010e0000100370088109000410c98001f00370065
:1010f0009080e90001087800110578007a049800d2
:10110000881490000900e00004003d000a00780007
:10111000d7fd070080047800070037000901780038
:101120008000eb000a007800140007000000e000d7
:10113000010032008a045000490c98000b0037006f
:101140002808900081717800060037002808900078
:10115000808141000104e00001003a0051c2b30067
:10116000814978000000e800200c98000000eb00a6
:101170004f0578004f04be00000006000300370052
:10118000b0cf1000050032000201e90080017800b4
:101190000200e000faff3a000000050003007800ba
:1011a000000006008001780002003700b159780085
:1011b0000201e9000200e000fcff3a000000060026
:1011c000020037000304e00006003200000178004e
:1011d00002007800b041780081cf5100f9ff3a0059
:1011e000010037000001eb0002007800000006005b
:1011f000fc874700889fbe008a9fbe008c9fbe0070
:101200008e1f78000006780080c5b30080cf5000a4
:101210000a0032007740400080cf50000a003200c0
:101220006940400080cf50000b003200f0a5200044
:1012300080bf9f00ae0020000a003700e2a420001b
:1012400082bf9f0006003700f3a5200083bf9f00e8
:101250008e00200003003700f4a5200084bf9f000b
:101260000e0120003c02be002c03be000605be009d
:101270000404be0040c6b30080cf5000030032001b
:101280006540400080cf50000b003a00e00f520054
:10129000e08f5a00e00f5b00e08f5b0006003d002e
:1012a0006000b8006011b800040450008584580044
:1012b0000605590087855900e80f570004003200e1
:1012c00040002000f00f570038003a0001003700be
:1012d00030002000e00f5400e08f5c00e00f5d0064
:1012e000e08f5d0004003a008c1090008d0120001a
:1012f0000100e000060032008e00e90088806000f6
:101300008fba9700e5c07800f1ef9f007d012000c3
:10131000800078008100e900050033008b05d100d2
:101320000a85d3008984d3000884d300f9ff3700ed
:10133000089ebe000a96be00120037008d06e90026
:101340008e00e900848060000fb99700e2c1780048
:1013500082fd2f000f01410003f17e008000780024
:101360008100e900050033008783d1000683d300a4
:101370008582d3000482d300f9ff3700049ebe00ab
:101380000696be003c02be002c03be00e00f5200d9
:10139000e08f5a00e00f5b00e08f5b008b003400b1
:1013a0000d00e000e5ff3c00880037000c6890006d
:1013b00081c6b300814f50000b00320006003c0094
:1013c0000004e00008003200e6c05000814f5000e9
:1013d0004e003a0004003700c1c6b300814f5000f0
:1013e0004a003a00210037000800e00004003a00fb
:1013f0000c1090008d0120000000e000060032007b
:10140000110009000e84d8000fb99700e2c07800df
:10141000f1ef9f007d012000110009000e84d8002b
:101420000a003700110009000e04d8008d06e900fb
:101430000e81b900020454008fb8970061417c000e
:1014400081fd2f008f80400082f07e000004780034
:101450000800e000020032000d00e000f1ff3c0057
:10146000cfc4de00614db90025003700e00f540005
:10147000e08f5c0004003a000c1090008d01200009
:101480000000e000070032006171b9000800be00f2
:10149000b10307008fb99700e3417800f3ef9f0095
:1014a0007d0120006171b9000800be00e0fc07006a
:1014b0000b0037006171b9000800be0097030700f8
:1014c0008d06e90000f1b900020454000fba97003c
:1014d000e4427c0084fd2f000f02420005f27e00f2
:1014e0000004be00e00f5000e08f58000200320000
:1014f0000d00e000efff3c004fcdde008a057800d4
:10150000089ebe000a96be0030003700e00f54006f
:10151000e08f5c00e00f5d00e08f5d0004003a00aa
:101520000c1090008d0120000000e0000900320046
:101530006172b900612bb9000800be000a01be004b
:101540002e0407000fba970064427800f4ef9f0062
:101550007d0120006172b900612bb9000800be0056
:101560000a01be001e0407000d0037006172b900b9
:10157000612bb9000800be000a01be002304070069
:101580008d06e90000f2b900040454008fba9700f8
:1015900065427c0085fd2f008f82420084f27e0030
:1015a000009ebe000296be003c04be002c05be009c
:1015b000e00f5400e08f5c00e00f5d00e08f5d0005
:1015c000020034000d00e000e8ff3c00e80f570087
:1015d00010003a003c1090000038a3000d003200cb
:1015e000f78f560006003e0085fd2f008f824200d7
:1015f000e5c07e0000c3b30080cf5000050032007c
:101600008d06e90002c3b30081fd2f008f804000ea
:1016100082f07e0078811600420e98007c009000d7
:1016200083fd2f008f8141008d804100ddfe07008a
:101630004c0890008c109000810f500006003d0077
:1016400000805000300e98003c1090000040a10037
:10165000301698000f0037000100e0000d003d003b
:10166000bc109000f4806000f08f500009003a0038
:101670002c119000ac089000810051003c099000b2
:1016800082805000008050004240a90001003400d8
:10169000300e98004f0778004f06be004f05be0081
:1016a0004f04be00cf01b100000006000400fa00a4
:1016b000889fbe008a9fbe008c1f780000047800bf
:1016c00001067800a8149000280890008084540037
:1016d00038089000808454004808900080845400aa
:1016e000580890008084540068089000808454005a
:1016f00078089000808454000002220090bf9f0070
:1017000000032300a0bf9f00381090000028a30012
:1017100015003a000900e0001300340009057800c4
:101720008a057800e20f5500010036002b002000ea
:10173000c80190000b017800ee805700680090000f
:1017400003000100600498000000e000aa003200dd
:10175000181090000b004000101498000b05550065
:101760004240a900eeff3c00280990000200e00082
:101770000c003400c80190008c00780068009000d4
:1017800003000100600498008080eb000000e0008e
:101790009a003200981090002808900000804000c5
:1017a00010149800380d90000a00e0001100340079
:1017b0008a057800e20f5500010036002b0020005a
:1017c000c80190000b017800ec8057006800900081
:1017d00003000100600498000000e0008600320071
:1017e000181090000b004000101498000b055500d5
:1017f000edff370008699000c808900050c6b3009c
:10180000804f510008003a000100e000150034004c
:101810005802900008099000980990006800900014
:1018200004000100070037000100e0000d00340053
:10183000c801900001017800f80090006800900055
:1018400003000100600498008080eb000000e000cd
:101850006a00320098109000480890000080400014
:1018600010149800580d90000a00e0001100340098
:101870008a057800e20f5500010036002b00200099
:10188000c80190000b017800ec80570068009000c0
:1018900003000100600498000000e00056003200e0
:1018a000181090000b004000101498000b05550014
:1018b000edff3700086990006808900051c6b3003a
:1018c000814f51000d003a000000e0001c00340080
:1018d00078019000c8089000010141006111b80032
:1018e000828fd2008381d20058029000800078005d
:1018f0006800900004000100090037000000e000cb
:101900000f00340078019000c80890008100410069
:10191000c8019000000178006800900003000100f9
:10192000600498008080eb000000e000330032008b
:1019300098109000680890000080400010149800f3
:10194000780d90000a00e000110034008a0578004c
:10195000e20f5500010036002b002000c801900066
:101960000b017800ec805700680090000300010034
:10197000600498000000e0001f0032001810900082
:101980000b004000101498000b055500edff3700c8
:10199000381090008000eb000028a30017003200f0
:1019a0000900e0001500340009057800e28f5400ba
:1019b000010036002a002000c80190000a017800ca
:1019c000ee8057006800900003000100600498005a
:1019d0000000e00008003200181090000a004000eb
:1019e000101498008a8454004240a900eeff3c0085
:1019f0008000eb00010037008080eb0001007800e0
:101a00004f0678004f05be004f04be000080fa006c
:101a1000000006000108780000000600e687470085
:101a2000889fbe008a9fbe008c9fbe008e1f7800dc
:101a300082bf9f0004047800029ab900f4b79f00a7
:101a40000400e000590032000fb997000200e000e6
:101a5000570032000006be0004077800c80090005e
:101a600068009000808f5000040039000800780062
:101a7000910007000000e0003b003500004020001e
:101a8000180060000a0032008e017800a2002000d9
:101a90000c00be00060207000005be0000807500b5
:101aa000070032008c0455008904e8000500370067
:101ab0008e0478000a0020000b002000010037008f
:101ac0008e047800480190006800900002005000e9
:101ad000890f500003003100800478000a002000c4
:101ae0000b0020006111b800828fd2008381d200e8
:101af000090278000c00be00c40107000907570066
:101b00004800900009004000400498000a857500d4
:101b100004003200080078002c0007000000e000fc
:101b200011003a000e00e0000f0032006148b800da
:101b3000808fd2008180d2000000780000f0a100e8
:101b40008c01d0000001d000028641004220a80094
:101b500081864e004200a9004220ae004200a8004b
:101b60000c86d300bdff3700008020001800600005
:101b700002003200080078001400070000c02000b6
:101b80001800600002003200c80190006304980051
:101b90007fb097000e0750000fb9970011000900a1
:101ba0000287d80080017800010037008001eb0037
:101bb000030078004f0778004f06be004f05be00b7
:101bc0004f04be006f00b10000000600889fbe00f9
:101bd000000478000800e0000f003a008004eb00e9
:101be000090478008800d000c09f200061007800c0
:101bf0000000e00004003200f4ff07000000e000f5
:101c000001003d008084eb000804e800e80f540068
:101c1000f4ff3a00250037000000220018006000a1
:101c20008004eb0021003200a80490000f00370070
:101c300009015100384090000000fb008900780045
:101c40008efa07000000e00007003c00280090002a
:101c50004004980060049800500c98001890a00070
:101c60008084eb001100370080844400480190001c
:101c7000828f5400eeff3900280090004004980045
:101c80009800780002c020000281600001003a0044
:101c90003800900001e8a3000200320060049800c0
:101ca00001003700500c98008004eb000900780018
:101cb0004f04be0000000600889fbe008a1f780007
:101cc00000047800c8009000680190000000eb005c
:101cd000828f50003c003900180078002200290053
:101ce00002016000e20f51000700320001202000d5
:101cf0000000e0000100350001202400008c70008d
:101d00000080eb0030003700020026000200600077
:101d1000820f500009003a0038009000808f500078
:101d20000600390008007800a8ff0700800078004e
:101d30000080eb000100e00023003a001805780065
:101d400000c020000000650018003a00a8049000c0
:101d50006002200008004000808f540013003a0009
:101d600000202000ef000700200498000000e000a1
:101d700005003a0029049800490498008904e80005
:101d800039049800080037000a60a0000a0c7800a7
:101d90004004980001202000808040003104980019
:101da000400c9800500c98000c0007002800900090
:101db000500498003800900060049800000026004d
:101dc000180c70000000eb004f0578004f04be00b7
:101dd0000000060000f9200061003700881f78002d
:101de00088a920001804e00003003a00f9ff07006a
:101df00020c0b300004c78004f04780000000600bb
:101e0000889fbe0000047800080078006fff07007c
:101e100080047800000420001800600002003200f6
:101e2000280090005a0007000000eb0020049800f2
:101e3000384090000004e000050035000000fb0081
:101e400005fa07000000e000010032008084eb008a
:101e5000181090000000e0000800320049fa070066
:101e60000000e000010032008084eb0018109000b8
:101e7000470007000000eb00101498000008200045
:101e800018006000150032000001eb006000b8008f
:101e9000c39f20000202d00063027a00880f520024
:101ea00005003a00000040008180480000804100a9
:101eb0000008eb000600370061004000e0804800a9
:101ec0000201e800e80f5000e08f5800f0ff3a00f0
:101ed000080078002e0007000e003700000c780084
:101ee00000c0eb0030449800600220000800400071
:101ef000200498004004980050049800400c98007a
:101f000060049800500c980070049800760044001b
:101f1000000c9800090078004f04be000000060085
:101f2000881f78000004eb006140b800e2ff2f003a
:101f3000f3ff2f000b010700a2a020006200780031
:101f40000000e00001003200adff07000804e800d7
:101f5000e80f5400f4ff3a004f0478000000060038
:101f6000010020000100e0000800320001008000b4
:101f70000100e000050032008100e9000100880056
:101f80008100d0000200800000b17800000006004f
:101f90000000e0002f003200c0017800e38f510004
:101fa0002c0036000308a3002a003a00b154800038
:101fb0000100e00002003200810f500004003100f7
:101fc00011009800b0548800160037008200780095
:101fd000110190000200e00002003200800f510069
:101fe000faff39001102780084824000850f50000a
:101ff00018003900808f520003003a008308420025
:1020000001007800070037000200e0000300320002
:1020100083014000830f51000e0039001200980028
:1020200090009800900090000100e000090032004c
:1020300010014000828f500006003a0042a92000a3
:102040000009eb0010017800110841009100900098
:102050001100980000000600889fbe000004780070
:10206000a15480000100e00002003200010078006d
:102070000d003700b154800060a920000400370033
:10208000910f5400250036000180e8009100900077
:102090000100e000faff3a0010003700920f5400f0
:1020a0001e0036000280e800100178000200e00007
:1020b000faff3a0011017800b154800060a92000b5
:1020c00004003700910f5400140036000180e8002e
:1020d00091009000828f5000faff3a00d95480009e
:1020e000888f5400010031008804780009007800ce
:1020f000360007000000e00004003a00888f54001a
:10210000050032008904d100f5ff37000918780076
:102110009fff0700d2ff37000000eb004f04be0016
:1021200000000600881f7800630440000800a1003a
:102130008000eb00800f540021003600e30f5400b4
:1021400001003e004800200008007800c2ff0700a0
:102150008000eb000000e0001900320090007800e1
:102160009101780064815100880f51000300310013
:102170001101900002087800070037000881400034
:102180000208780091019000130198001001780076
:102190001109140088087800100178000000eb0095
:1021a0000200e00004003200920190000300e00011
:1021b000010032000280e800a05488008180e8001d
:1021c000010078004f0478000000060080007800cd
:1021d0000000eb000100e000050034000100780081
:1021e00071f90700e10f400001003a000000eb0028
:1021f0000000060000c0da000000060000c0da009f
:102200000000060000c0da00000006003400f800fc
:102210003200f8000203be008202700085027200e4
:1022200002f0a6008301e800a301880000f0a600e8
:102230008100e800910188001500b2000c00320016
:10224000104978000402e9001500320061014100e4
:10225000020039003420ec00020028006100400038
:10226000f7ff39003220ec0000002800f4ff3700af
:10227000100978000482e90009003200620141007f
:10228000020039003420ec00020028006200400007
:10229000f7ff39003220ec0000002800f4ff37007f
:1022a0003200f9003400f9000601be00000006000b
:1022b0000300e000070032009501800091018800d2
:1022c00010427800950188000402fb00820f520042
:1022d000110032008301e90095018000910188001e
:1022e00010427800950188000404e00008003200e4
:1022f000000278001000b00000026a004260af00e7
:1023000000f0a0000482d2000180b000e8ff370096
:10231000000020000100200000000600839f6800ec
:102320000100e00002003d0060001000e0801800a5
:102330000300e00002003d0060011100e08119008f
:102340003bf907004f00e00002003b006000100076
:10235000e08018000000060035f907000400be0008
:1023600000000600020ab900001bb9000200b80014
:10237000810042008100430000000600889fbe00eb
:102380008a9fbe0030044200b0844a0030054b00f2
:1023900090854b006000b1000898be000a90be0016
:1023a0000440e10005c8e10006d0e10007d8e100e3
:1023b00002003100680040001008e8004f05be0030
:1023c0004f04be0000000600889fbe008a9fbe002a
:1023d0003004be002005be000418540005985c00bf
:1023e00006185d0007985d00110020000440e10020
:1023f00005c8e10006d0e10007d8e100010039007e
:102400008000eb00108810004f05be004f04be0096
:10241000000006001200fa00889fbe008a9fbe00de
:102420008c9fbe00e0b79f00f1b79f0082bf9f0066
:1024300093bf9f000605be000404be000000eb0031
:10244000d0b79f00c0b79f00b0b79f00a0b79f0054
:1024500090b79f00000678005fb19700cfb097005b
:10246000820141003fb097000200e00004003d00ff
:10247000370007007e805700c0ff070003003700c9
:10248000330007007e805700cfff0700dfb69700bc
:102490000d00e0000c0035006fb29700ffb297000e
:1024a0000fbb97009fbb9700100020000100200089
:1024b0006011b80000027200818272000203730092
:1024c000838373001b0007000c06e8000104200052
:1024d000810f5600e0ff3a000d00e00004003d00cf
:1024e0000802be000a03be007e805700a3ff07005b
:1024f0005fa897000000e00005003a001fb29700b7
:10250000afb297003fb39700cfb397000900070021
:102510006fb09700ffb097000fb997009fb9970071
:102520004f06be004f05be004f04be000080fa00fb
:10253000000006000100070000000600a4b79f008d
:10254000b5b79f00c6b79f00d7b79f000000060031
:102550004f09de0082817100b3b79f004f01de009a
:102560008180400082807000a1b79f008fb09700eb
:102570004f09de00000040000200700090b79f008d
:102580007fa897004f01de008180400082807000ac
:1025900081b79f000d0007004f3ade0000004000a9
:1025a00004007000f0af9f00080007000402420022
:1025b00085824a0006034b0087834b00dfff07003c
:1025c0000802be000a03be00000006002fb29700fa
:1025d000bfb297004fb39700dfb39700000006002b
:1025e000881f780018002000881f780089ff0700e6
:1025f0008f87e9004f04780000000600801feb0081
:1026000084ff07008f87e90000000600889fbe0056
:102610008a9fbe00e00f5000e08f5800e00f590085
:10262000e08f59000c003d006044b8006055b800d0
:102630000000540081805c0002015d0083815d0028
:10264000180020001500070008003d0018000700d2
:102650000004eb00050037000004eb000f0007004a
:1026600002003d001200070018002000dcff0700f8
:102670000800e000060032006022b8006033b800b5
:102680000000520081805a0002015b0083815b00e0
:102690004f05be004f04be0000000600e00f5200d0
:1026a000e08f5a00e00f5b00e08f5b000000060047
:1026b0006044b8006055b8000402540085825c0094
:1026c00006035d0087835d0000000600889fbe0052
:1026d0008a9fbe008c1f7800e00f5000e08f5800ea
:1026e000e00f5900e08f59000d003d006044b80034
:1026f0006055b8000000540081805c0002015d005c
:1027000083815d001c0020000820e10009a8e10091
:102710000ab0e1000bb8e1000d003d0008003700f1
:102720000006eb00e00f5200e08f5a00e00f5b0064
:10273000e08f5b0006003d006044b8006055b800c3
:102740000402540085825c0006035d0087835d00ff
:10275000aaff07000c00e000060032006022b8006b
:102760006033b8000000520081805a0002015b0013
:1027700083815b004f0678004f05be004f04be000a
:04278000000006004f
:020000040000fa
:102784006c690000622f000061730000796e000024
:10279400635f000075610000727400002e63000026
:1027a4003a350000332000006465000073630000c4
:1027b400202600002620000062750000662000002c
:1027c40026260000206c0000656e0000006c0000ee
:1027d400696200002f610000737900006e630000dd
:1027e4005f75000061720000742e0000633a0000ff
:1027f40033340000206900006f5f0000646500004e
:10280400736300002026000026200000627500008b
:102814006620000026260000206c0000656e000083
:10282400006c0000696200002f61000073790000f1
:102834006e6300005f75000061720000742e00007a
:10284400633a00003635000020640000657600001d
:1028540069630000650000006c690000622f0000dd
:1028640061730000796e0000635f00007561000011
:10287400727400002e6300003a3100003031000011
:102884002064000065730000632000002626000019
:10289400206900006f0000006c690000622f0000d6
:1028a40061730000796e0000635f000075610000d1
:1028b400727400002e6300003a31000030370000cb
:1028c4002064000065730000630000006c69000070
:1028d400622f000061730000796e0000635f0000e6
:1028e40075610000727400002e6300003a3100002c
:1028f40031320000206400006573000063000000b2
:102904006c690000622f000061730000796e0000a2
:10291400635f000075610000727400002e630000a4
:102924003a31000031370000206400006573000074
:10293400630000006c690000622f000061730000f6
:10294400796e0000635f000075610000727400001e
:102954002e6300003a31000032320000206400008f
:1029640065730000630000006c690000622f0000c2
:1029740061730000796e0000635f00007561000000
:10298400727400002e6300003a31000032370000f8
:102994002064000065730000630000006c6900009f
:1029a400622f000061730000796e0000635f000015
:1029b40075610000727400002e6300003a3100005b
:1029c40034360000206400006573000063000000da
:1029d4006c690000622f0000726900006e670000dd
:1029e4006275000066660000657200002e630000d8
:1029f4003a370000206200007566000020260000bf
:102a040026200000736900007a650000006c000055
:102a1400696200002f720000696e000067620000a6
:102a24007566000066650000722e0000633a0000bf
:102a340031360000207200006220000026260000cb
:102a44002064000061740000610000006c690000f3
:102a5400622f0000726900006e670000627500005a
:102a640066660000657200002e6300003a320000c2
:102a74003520000072620000006c000069620000f2
:102a84002f720000696e0000676200007566000026
:102a940066650000722e0000633a000033380000bf
:102aa40020720000620000006c690000622f0000c8
:102ab400726900006e6700006275000066660000bf
:102ac400657200002e6300003a34000033200000d9
:102ad40072620000000000006c690000622f0000b8
:102ae400696f00002e6300003a3500002069000081
:102af4006f5f00006465000073630000202600001f
:102b04002620000062750000660000006c69000069
:102b1400622f0000696f00002e6300003a3100004c
:102b240030200000696f00005f64000065730000de
:102b34006320000026260000206200007566000065
:102b4400000000001b5b0000333400006d00000037
:102b540025730000207400006f740000616c000095
:102b6400207200006561000064610000626c000076
:102b74006520000062790000746500002063000095
:102b84006f7500006e7400002025000064200000b2
:102b940025730000200a00000d0000000a00000058
:102ba400686100006c2f0000686100006c5f000029
:102bb40075610000727400002e6300003a36000054
:102bc400332000006465000076690000636500003e
:102bd4000000000034190000ec180000e4180000a4
:0c2be4006e190000701f0000761f00003a
:020000040000fa
:102bf000640050006011b800221098003310980053
:102c0000800890000100e000010032000100010096
:102c10000000060000000600889fbe008a9fbe00dc
:102c20008c1f780080047800010478000246780048
:102c30000900e0001c0032000800e0001a00320029
:102c40000c04e00018003200f6844400090078000b
:102c5000a41c020000000000800578000005eb00c5
:102c60000b00e0000b0034000c86fb000900320072
:102c70008a0044000a05e80009007800241c0200cc
:102c8000000000008a8f5500020034008c0f5500b0
:102c9000f7ff35000a0078004f0678004f05be00a8
:102ca0004f04be00000006008000eb00203c29001d
:102cb000fc1d020000000000e3ff3700889fbe00fb
:102cc0008a1f78000004be00024578000800e0007a
:102cd000040032000900e000020032000a04e000b3
:102ce00004003a008000eb00903e2900fc1d020029
:102cf0000000000048119000e81090000080eb00f8
:102d0000810f5100030032004f0578004f04be00d0
:102d100000000600591498000a85fb006a14980008
:102d20000000eb004014980010002000010020007b
:102d30002014980031149800994078001900200060
:102d4000491498006404440008007800921b0200b3
:102d5000000000008940780008007800a41b0200f1
:102d6000000000000a0078004f0578004f04be0004
:102d700000000600e7ff3700881f78006404500059
:102d8000720040005e1c02000000000098089000e5
:102d90000100e0000200320008007800010001009c
:102da0004f04780000000600889fbe0000047800f1
:102db0000800e0001c003200e404540049109000b8
:102dc000e9109000810f500009003200d9109000e6
:102dd000e14078000000e800c01498000800780086
:102de000921b0200000000004f04be00000006001d
:102df0008040eb0008007800b01b020000000000db
:102e00008040eb0008007800bc1b020000000000be
:102e1000c900900008007800010001004f04be00c6
:102e200000000600f2ff37008000eb00304129006f
:102e3000fc1d020000000000dfff3700889fbe007d
:102e40000004be00820078000401be007600440049
:102e5000ec1b0200000000006400440089007800c0
:102e6000d41a020000000000e1652100010c780086
:102e7000c160210011049800416d210021049800d7
:102e8000815f210041049800c16b2100310498004a
:102e9000a1602100510498004f04be00000006000c
:102ea000889fbe000004be000800e000060032005b
:102eb0000900e00004003200880c780010002000b7
:102ec0004f04be00000006008000eb00e042290035
:102ed000fc1d020000000000880c7800100020009b
:102ee0004f04be0000000600f7ff3700889fbe00b9
:102ef0000004be000800e000060032006400440048
:102f000089007800741b0200000000004f04be001e
:102f1000000006008000eb00e0442900fc1d0200d8
:102f2000000000006400440089007800741b020067
:102f3000000000004f04be0000000600f5ff37004f
:102f4000889fbe000004be000800e00006003200ba
:102f500064004400890078007a1b02000000000031
:102f60004f04be00000006008000eb0080462900f0
:102f7000fc1d02000000000064004400890078008d
:102f80007a1b0200000000004f04be000000060093
:102f9000f5ff3700881f7800000478000800e00083
:102fa0000500320064004400861b0200000000009f
:102fb0004f047800000006008000eb002048290044
:102fc000fc1d02000000000064004400861b02009b
:102fd000000000004f04780000000600f6ff3700f4
:102fe000889fbe000004be000800e000060032001a
:102ff0006400440089007800801b0200000000008b
:103000004f04be00000006008000eb00c04929000c
:10301000fc1d0200000000006400440089007800ec
:10302000801b0200000000004f04be0000000600ec
:10303000f5ff37000200fa00889fbe008004780088
:10304000010478000900e00017003200e10f54008d
:103050000f00320005003100920c98001000200093
:103060004f04be000080fa00000006000080eb0064
:10307000e20f5400faff3a00a20c98001000200062
:103080004f04be000080fa0000000600f7ff370082
:10309000820c9800080078004f04be000080fa00ff
:1030a00000000600f1ff37008000eb00604b2900b4
:1030b000d2bf9f00fc1d0200000000005fb9970016
:1030c000e2ff3700881f7800000478000800e00065
:1030d0000500320076004400ca1c02000000000017
:1030e0004f047800000006008000eb00004d29002e
:1030f000fc1d02000000000076004400ca1c020013
:10310000000000004f04780000000600f6ff3700c2
:1031100020119000b0119000e00f5100e08f590095
:1031200011003a0002a120008000eb00e4015100f0
:10313000760ab900048241001204e0000300320064
:10314000d2029000850f5000050032008100e80097
:1031500076014100e38f5000f5ff3a0000000600c1
:1031600040109000100a980000000600889fbe00e2
:1031700002a120008000eb00e4015100760cb900b0
:10318000088441001204e000030032005202900063
:10319000840f5000050032008100e80076014100f4
:1031a000e38f5000f5ff3a000004eb007800900038
:1031b00076004000a41c020000000000200c9800d3
:1031c0004f04be0000000600700090007600400032
:1031d000a41c040000000000889fbe008a9fbe005f
:1031e0008c1f780000057800010678008245780081
:1031f0008b84fb001a009000808f540014003c0068
:103200000000eb00200d98000900e0000b003400e6
:103210000004780008c15500880046000a089000a4
:1032200052200200000000000000e000080035000d
:1032300000044400888f5400f6ff3c000900780029
:103240004f0678004f05be004f04be000000060088
:103250000080eb004f0678004f05be004f04be0013
:1032600000000600faff3700889fbe008a1f780022
:10327000000478008284fb00180090000085eb00b9
:10328000808f5400040034000a0078004f05780055
:103290004f04be00000006000000eb00100c980078
:1032a000080890001e20020000000000808f5400db
:1032b000f5ff3a0018089000890f50000200320014
:1032c00000000000fbff3700180890004f05780051
:1032d0004f04be0000000600efff3700881f780093
:1032e0000004780000402200410f20001804020072
:1032f00000000000c209de004e0add004201de00cf
:10330000020172008200e9000080eb0002003a0036
:103310004f0478000000060078009000f0170200cb
:10332000000000004f04780000000600faff37009c
:103330000600fa00889fbe008a9fbe008c9fbe00d8
:103340000204be00010578000601be008086fb0075
:10335000766bb900e4054300c1a0200061c67d0082
:103360008005eb000c04e000060032000b00780042
:103370004f06be004f05be004f04be000080fa009d
:1033800000000600e34f5000f8ff3e000c202c0028
:103390001d0020008c0f54008d8f5c00f3ff3e0059
:1033a0000004e00033003200e14f50002d003200f5
:1033b0008005eb00e24f5000ecff3a0086824000af
:1033c00060952000f002980086067800f0824600a2
:1033d000cca0200085804000f2b79f0083bf9f00f3
:1033e00094bf9f0050170200000000008005eb0012
:1033f0007fb197008fb997000000e000dbff350038
:1034000011c0b3006400460001f07e008d05460047
:103410002fb09700bfb09700d0059800e105980045
:103420000b0078003e1f020000000000ee86460000
:103430006c807e009fb897007617020000000000a5
:103440000000e0000f003d000000eb004f06be0052
:103450004f05be004f04be000080fa0000000600c9
:10346000c8ff37008682400080922000f00298005a
:10347000d5ff370086824000a08f2000f002980020
:10348000d1ff37006c807e008a007800a017020010
:10349000000000000000e000ebff35000801be0066
:1034a0000b007800221f0200000000000000e00076
:1034b000e5ff35006c807e0082882100110020002d
:1034c0001a180200000000000000e000deff3500d6
:1034d0006c807e00628b21008000eb001a180200d5
:1034e000000000000000e000d7ff35006c807e0087
:1034f000ca170200000000000000e000d2ff350003
:103500006c807e0062180200000000000000e000f5
:10351000cdff35000b0078004f06be004f05be0002
:103520004f04be000080fa000000060095ff37003f
:103530000200fa00889fbe008004780059049000c1
:10354000180090000008a3000f003200b80090009f
:103550001901900009007800020001001800900095
:10356000d0bf9f00dfb897006e806000f4ff32008c
:10357000180090000010a10010049800180090009e
:103580000008a300f1ff3a00094890000080fb000a
:103590008000eb00a61f0200000000004f04be00e8
:1035a0000080fa0000000600889fbe0080047800ba
:1035b000010478000900e0002300320080002000b0
:1035c000000c78000000eb00100498004004980004
:1035d000d804980081392000810f54002700320060
:1035e000e03a2000800f540031003200403c2000bf
:1035f000800f540003003200100020004f04be0072
:103600000000060020c0b300804c98005954880088
:10361000094890000080fb008000eb00a61f02001c
:1036200000000000094890000080fb00110020000d
:103630007e1f020000000000100020004f04be00aa
:1036400000000600efff37008000eb00205d29003e
:10365000fc1d02000000000080002000000c78002b
:103660000000eb001004980040049800d804980073
:1036700081392000810f5400d9ff3a00804c980016
:1036800079548800094890000080fb008000eb001e
:10369000a61f020000000000094890000080fb0007
:1036a000110020007e1f020000000000e2ff370032
:1036b00010c0b300804c98006954880009489000fd
:1036c0000080fb008000eb00a61f0200000000004d
:1036d000094890000080fb00110020007e1f0200be
:1036e00000000000d4ff37005000900010887000e8
:1036f00010000500500090001088700010000500b8
:10370000500090004100980010000500500090000b
:1037100010f0a0009000900001a0a00011009800ff
:1037200010000500500090008180fb0021009800ef
:1037300010000500d0009000110090000098a30038
:10374000fdff3a00100005008180fb00004890005a
:103750000080fb00ce1f02000000000010000500ea
:103760008180fb00004890000080fb00ce1f02001b
:1037700000000000100005008180fb000048900060
:103780000080fb00f61f0200000000001000050092
:103790008180fb00004890000080fb007e1f02003b
:1037a00000000000100005008180fb000048900030
:1037b0000080fb007e1f02000000000010000500da
:1037c0008180fb00004890000080fb00a61f0200e3
:1037d00000000000100005000400fa00889fbe00f1
:1037e0000004be000900e00003003200e00f5100b9
:1037f000e08f590008003a008000eb00a04e29003d
:10380000c2bf9f00d3bf9f00fc1d0200000000004c
:10381000dfb997004fb99700090c7800120498009f
:10382000230498006000b8005004980061049800d8
:103830003004980041049800100020004f04be009e
:103840000080fa0000000600889fbe000004be0051
:103850000800e000140032000900e000120032000d
:1038600058009000e800900038019000c8019000d6
:10387000800f5100818f590008003200180040006d
:10388000904c780058009000e800900061004000e3
:10389000e080480050049800610498001000200067
:1038a0004f04be00000006008000eb00905029008d
:1038b000fc1d020000000000e9ff3700889fbe00e9
:1038c00000047800814478000800e000190032000c
:1038d00098007800380090008970780038009000d7
:1038e000c800900018019000a801900058029000b4
:1038f000e80290000402500085825800820f5200b6
:10390000838f5a0004003600020150008381580062
:10391000520498006304980061004000e080480071
:103920003004980041049800100020004f04be00ad
:10393000000006008000eb0080522900fc1d020000
:1039400000000000e2ff3700881f780000047800c4
:103950000800e00005003200b80090005800900018
:10396000008050004f047800000006008000eb004b
:10397000f0532900fc1d020000000000b800900078
:1039800058009000008050004f04780000000600ae
:10399000f6ff3700881f7800000478000800e00078
:1039a000080032006000b8005004980061049800dc
:1039b0003004980041049800100020004f04780063
:1039c000000006008000eb0060552900fc1d02008d
:1039d000000000006000b8005004980061049800e6
:1039e0003004980041049800100020004f04780033
:0839f00000000600f3ff3700a0
:020000040000fa
:1039f8008a0a000006000000800000000c0a00008f
:103a08004200000082000000ec95ff00000000006a
:103a1800000000000000000000000000000000009e
:103a28000000000000ec9500ff000000000000000e
:103a3800000000000000000000000000000000007e
:103a48000000ec0095ff00000000000000000000ee
:103a5800000000000000000000000000000000005e
:103a6800000800008401000080000000900a0000a7
:103a78000400000080000000700a00001a00000026
:103a880082000000686a6c00747a4c000000010033
:103a980000020000040008000010000000002000e0
:103aa8002b2d2300300000004e0a000022000000e9
:103ab80082000000303132003334350036373800a8
:103ac800394142004344450046003000313233005a
:103ad8003435360037383900616263006465660042
:103ae8000000000084090000880000008200000037
:103af8000100000000aa0900ab09aa0009aa0900f0
:103b0800aa09aa00099a09000000000000000000a4
:103b1800000000000000000000000000000000009d
:103b280000000000000208000101d20009d30900ca
:103b3800d209d20009d20900d209c2000900000046
:103b4800000000000000000000000000000000006d
:103b5800000000000000000000000200080202004f
:103b6800fa09fb0009fa0900fa09fa0009fa09003a
:103b7800ea0900000000000000000000000000004a
:103b8800000000000000000000000000000000002d
:103b98008409ac0009d409000000000000000000fe
:103ba8000000000000000000980a00000200000069
:103bb800800000009a0a0000020000008200000055
:103bc80004000000940a00000400000080000000c7
:103bd8009c0a0000020000008200000001000000b2
:103be8009e0a0000020000008000000000000000a3
:020000040000fa
:103bf800ffff3700862004000000000075e6a800db
:103c0800000000007de6a9000000000075c6a800bd
:103c1800000000007dc6a90000000000f00b200095
:103c28000001b60061042000720520000310200086
:103c380081497800824978008049780000fc2f008b
:103c4800b607b600e000b300b03d8800f30f2800c7
:103c5800803f8000808161000050200003007000d8
:103c6800803f8800000880000060a000031020004a
:103c7800814978008249780080497800d42004007e
:103c8800000000002c01fa00889fbe008a9fbe0039
:103c98008c1f7800d9ff070086bb20000700200092
:103ca800869fbe000002eb008400780002202c00f2
:103cb8001300200010c0b300981902000000000093
:103cc80080548800e4875700495a2900aa5a2900d5
:103cd8000046eb000060fe00805480000a1f0200ce
:103ce800000000000000e00022003a00891f780070
:103cf800801f7800891f78008a1f78000e007800de
:103d08006c0402000000000088548000e887570017
:103d18000800e0000d0032000e00780038040200b0
:103d280000000000004178008e007800080078004c
:103d3800da1e02000000000012c0b300015d290075
:103d480008007800da1e02000000000000202100b0
:103d5800a1072000b8200200000000000060fe005b
:103d6800805480000a1f0200000000000000e000ec
:103d7800deff32008f0578008080e8000100a10096
:103d8800818747000b04e8000800a1000041780083
:103d98008800780080548000f21e020000000000b5
:103da8000c7478008b077800d0ff37000082eb0096
:103db8000000e00002003a0004007800000006005d
:103dc80090017800930178000300e000faff3200c8
:103dd8000300010000000600f9ff37000082eb0035
:103de8000000e00002003a0004007800000006002d
:103df80090017800930190000300e000faff320080
:103e08000300010000000600f9ff37000081eb0005
:103e18000000e00002003a000200780000000600fe
:103e280090007800a10090000100e000faff320045
:103e38000100010000000600f9ff37000202be0081
:103e48008081eb000000e00002003a0003007800e7
:103e58000000060090007800b10090000100e0002a
:103e6800faff32000401be00010001000000060054
:103e7800f8ff37000202be0013c0b3000000e000e4
:103e88000700320090007800c10090000100e000b7
:103e9800030032000401be000100010080417800e7
:103ea80003407800000006000081eb008081eb00f1
:103eb8000000e0000600320090007800d100900079
:103ec8000100e00002003200010001000001be0014
:103ed8000200be000000060032009800430098006f
:103ee8001000050030019000c0009000020078002a
:103ef800000006004100dd00010040004100dd0037
:103f0800006001009960a900000006009960a800ff
:103f1800000006009bc0a900000006009bc0a80086
:103f280000000600a240a90000000600a240a80068
:103f380000000600a300a90000000600a300a800d6
:103f4800000006004100dd00010040004100dd00e6
:103f5800006001008960a900000006008960a800cf
:103f6800000006008bc0a900000006008bc0a80056
:103f7800000006009240a900000006009240a80038
:103f8800000006009300a900000006009300a800a6
:103f9800000006004100dd00010040004100dd0096
:103fa800006001009980a900000006009980a8001f
:103fb800000006009be0a900000006009be0a800a6
:103fc80000000600a260a90000000600a260a80088
:103fd80000000600a320a90000000600a320a800f6
:103fe800000006004100dd00010040004100dd0046
:103ff800006001008980a900000006008980a800ef
:10400800000006008be0a900000006008be0a80075
:10401800000006009260a900000006009260a80057
:10402800000006009320a900000006009320a800c5
:10403800000006000200fa00889fbe000004be00cf
:104048000800e000080032000900e0000600320025
:10405800980178000800be00030001004f04be006c
:104068000080fa00000006008000eb00e0562900fe
:10407800d2bf9f00fc1d0200000000005fb997003e
:10408800980178000800be00030001004f04be003c
:104098000080fa0000000600f3ff37000200fa0073
:1040a800889fbe000004be000800e000080032003f
:1040b8000900e00006003200980190000800be00e8
:1040c800030001004f04be000080fa000000060053
:1040d8008000eb0080582900d2bf9f00fc1d020021
:1040e800000000005fb99700980190000800be002a
:1040f800030001004f04be000080fa000000060023
:10410800f3ff37000621ef00a1092000320020004c
:10411800800720001310200080497800814978002a
:1041280082497800000880000000a0007205200085
:10413800610420000310200081497800824978003a
:10414800804978000200270001002300030880004e
:1041580003006100810f5000fcff3a0000a1ab0092
:08416800feff3200000006001a
:020000040000fa
:10417000f03fb1000180b10006003500ee030900f8
:1041800000000000403fb1000180b100fbff3d0096
:104190001000b000203fb000020035000080090090
:0841a000000000000000060011
:020000040000fa
:1041a800a40f20000500200002802000e13a200032
:1041b800809220001e17040000000000fe1d02006f
:1041c80000000000461e020000000000000005007c
:020000040000fa
:020000040005f5
:045e0000feff0000a1
:020000040000fa
:020000040005f5
:045e2000ffffff0081
:020000040000fa
:020000040005f5
:045e30000bffff0065
:020000040000fa
:020000040005f5
:045e380025ffff0043
:020000040000fa
:020000040005f5
:045e4000fafcff0069
:020000040000fa
:020000040005f5
:045e4800ffffff0059
:020000040000fa
:020000040005f5
:045e5000deffff0072
:020000040000fa
:020000040005f5
:045e5800ffffff0049
:020000040000fa
:020000040005f5
:045e6000ffffff0041
:020000040000fa
:020000040005f5
:045e6800ffffff0039
:020000040000fa
:020000040005f5
:045e7000ffffff0031
:020000040000fa
:020000040005f5
:045e7800ffffff0029
:020000040000fa
:020000040005f5
:045e8000efffff0031
:020000040000fa
:020000040100f9
:04300000ffffff00cf
:00000001FF
